S02400004162733136506F736974696F6E73486F6D65546F4861726453746F702E737265634A
S214004000000003203D930000D1420000D142000092
S214004010D1420000D1420000D14200000000000062
S214004020000000000000000000000000D142000078
S214004030D142000000000000D1420000D9910000EB
S214004040D1420000D1420000D1420000D14200001F
S214004050D1420000D1420000D1420000D14200000F
S214004060D1420000D1420000D1420000D1420000FF
S214004070AD900000BD900000CD900000DD900000E7
S214004080ED900000FD9000000D9100001D910000D5
S2140040902D9100003D9100004D9100005D910000C3
S2140040A06D910000799100008991000099910000BF
S2140040B0D1420000D1420000D1420000D1420000AF
S2140040C0D1420000D1420000D1420000D14200009F
S2140040D0D1420000D1420000D1420000D14200008F
S2140040E0D1420000D14200000000000000000000A5
S2140040F000000000D142000041900000D1420000C4
S2140041004D90000059900000D1420000D1420000BE
S214004110D1420000D142000065900000D14200006C
S214004120719000007D900000D1420000D142000056
S214004130D1420000D1420000D1420000D14200002E
S214004140D1420000D1420000D1420000D14200001E
S214004150D1420000D1420000D1420000D14200000E
S214004160D1420000D142000089900000D1420000F8
S21400417095900000A19000000000000000000000E4
S2140041807D2E0100812E0100852E0100892E010062
S214004190359000002D920000D1420000D142000070
S2140041A0D1420000D1420000D1420000D1420000BE
S2140041B0D1420000D1420000D1420000D1420000AE
S2140041C0D1420000D1420000D1420000D14200009E
S2140041D0D1420000A9910000D1420000D142000067
S2140041E0C1910000D1420000D1420000D14200003F
S2140041F0D1420000D1420000D1420000D14200006E
S214004200D1420000D1420000D1420000D14200005D
S214004210D1420000D1420000D1420000D14200004D
S214004220D1420000D1420000D1420000D14200003D
S214004230D1420000D1420000D1420000D14200002D
S214004240D1420000D1420000D1420000D14200001D
S214004250D1420000D1420000D1420000D14200000D
S214004260D142000010B5054C237833B9044B13B186
S2140042700448AFF300800123237010BDB00A00206D
S21400428000000000944C02000C4B43B10C480D4952
S21400429010B5AFF300800C48036823B910BD0A4878
S2140042A0036833B97047094B002BF7D0BDE81040C0
S2140042B01847064B002BF5D0184700BF000000003B
S2140042C0944C0200B40A0020AC0A00200000000053
S2140042D0FEE700BF70B504461AF032FC68B10D4E1A
S2140042E0251801E0A54208D014F8011B304601F05D
S2140042F0BBFB0028F6D1002070BD0D21054801F05B
S214004300B3FB0028F7D00A210248BDE8704001F050
S214004310ABBB00BF801400202DE9F043814DD5F8DB
S2140043201831D9068BB000F1DE807F4C7F4E804678
S21400433004F1140714F8011B304601F095FB08B190
S214004340BC42F7D101A90A2240461BF04FFF01A844
S2140043501AF0F6FB60B101AC744F261801E0A642D5
S21400436006D014F8011B384601F07EFB0028F6D173
S2140043700D216E4801F078FB002840F0C88008F157
S214004380FF330F2B00F2AA80DFF89891684E0024C6
S21400439000270121484600F0AFFB3046394605F0BD
S2140043A0BBF901340021484600F0A6FBE4B23046D3
S2140043B0394605F0B1F94445EBDB012159485D4C1F
S2140043C05A4E00F07FFB5A48002105F0A5F900215F
S2140043D0544800F077FB5848002104F1190705F00F
S2140043E09BF914F8011B304601F03EFB50B1A74282
S2140043F0F7D10D214D4801F037FB18B10A214B4883
S21400440001F032FB95F8F430012B03D0D5F81831C3
S214004410DA06F7D5D5F81831DB0617D4474C434DE6
S21400442004F1090614F8011B284601F01DFB40B1F3
S214004430A642F7D10D213D4801F016FB04460028A0
S2140044406AD1012420460BB0BDE8F0833C4C374DC2
S21400445004F1150614F8011B284601F005FB50B1BF
S214004460B442F7D10D21314801F0FEFA18B10A2105
S2140044702E4801F0F9FA334C2C4D04F1440614F89A
S214004480011B284601F0F0FA50B1A642F7D10D21E3
S214004490264801F0E9FA18B10A21244801F0E4FAA6
S2140044A0294C224D04F1400614F8011B284601F061
S2140044B0DBFA50B1A642F7D10D211C4801F0D4FA20
S2140044C018B10A21194801F0CFFA0D21174801F05A
S2140044D0CBFA18B10A21154801F0C6FA0024204686
S2140044E00BB0BDE8F083194C104D04F1690614F8C2
S2140044F0011B284601F0B8FA0028EFD0A642F6D1F4
S2140045000D210A4801F0B0FA0028E7D0E2E70A21B8
S214004510064801F0A9FA32E70A21044801F0A4FA95
S214004520DDE700BF600B00202C280200801400206E
S214004530C0D401004428020080A903000429020018
S2140045406028020078280200C0280200C027020067
S214004550F8B5714B714C18680922022106F05CFB15
S21400456094F8D830022B08D06D49C4F8F010022217
S214004570012384F8D82084F82F3104220123C4F8BC
S214004580E82084F8E4300021664F644800F09AFA88
S2140045900021624800F0B0FA4FF41651384601F098
S2140045A04BFA05F08FF80646384601F039FA41F224
S2140045B08735384601F02EFA002800F09D8001214C
S2140045C0564800F0B1FA5848FFF784FE5748FFF700
S2140045D081FE94F8F430012B03D0D4F81831DA06B3
S2140045E0F7D5D4F81831DB0640F18D805048FFF738
S2140045F071FE5048FFF76EFE4F48FFF76BFE0D2129
S214004600484801F031FA18B10A21464801F02CFA60
S2140046103FA5D5E900450120FFF77EFE2946204646
S21400462005F07AF80220FFF777FE2946204605F0C7
S21400463073F80320FFF770FE2946204605F06CF855
S2140046400420FFF769FE2946204605F065F8052098
S214004650FFF762FE2946204605F05EF80620FFF7C3
S2140046605BFE2946204605F057F80720FFF754FE64
S2140046702946204605F050F80820FFF74DFE29464B
S214004680204605F049F80920FFF746FE2946204651
S21400469005F042F80A20FFF73FFE2946204605F0BF
S2140046A03BF80B20FFF738FE2946204605F034F885
S2140046B00C20FFF731FE2946204605F02DF80D2088
S2140046C0FFF72AFE2946204605F026F80E20FFF7BB
S2140046D023FE2946204605F01FF80F20FFF71CFE94
S2140046E02946204605F018F81020FFF715FE20464C
S2140046F0294605F011F88EE704F0E4FF801BA84277
S2140047007FF657AF5BE70D48FFF7E4FD80E700BF95
S214004710000E270700000000FC1B0020600B002096
S214004720003C1CC68014002010290200202902002C
S2140047306028020078280200342902007829020046
S2140047400020704790F91800704700BF0620704799
S2140047500120704790F81401704700BF80797047B9
S21400476038B583798B4200F0A780A1F109030D4686
S2140047700446032B00F2A280DFE803F07A464602E6
S214004780303006F079FE72B6D4F8B4000368002222
S214004790A4F810213BB1D4F8C410D4F8C0200B689C
S2140047A01340FCD10360D4F8BC0003680022A4F8D0
S2140047B012213BB1D4F8CC10D4F8C8200B681340B3
S2140047C0FCD10360D4F8A4103D4A91F901308978F1
S2140047D002EBC3130B440C2093F8401041F0010188
S2140047E083F84010D4F8A81091F90130897802EBCC
S2140047F0C3130B4493F8402042F0010283F8402094
S214004800A07162B6012038BD303006F035FE72B6B3
S214004810D4F8BC0003680022A4F812213BB1D4F8F7
S214004820CC10D4F8C8200B681340FCD10360D4F831
S214004830A410234A91F90130897802EBC3130B4484
S21400484093F840106FF3000183F84010D4F8A810D6
S21400485091F90130897802EBC3130B4493F840209A
S21400486042F0010283F84020A57162B6012038BDEF
S214004870303006F001FED4F8A410114A91F9013048
S214004880897802EBC3130B44092593F840106FF3A5
S214004890000183F84010D4F8A81091F90130897807
S2140048A002EBC3130B44012093F840206FF3000281
S2140048B083F84020A57138BD012038BD002038BDE2
S2140048C00080004183790A2B0FD090F83D30A3B1C9
S2140048D0D0F8A430D0F8B02093F90130DB0103F112
S2140048E0824303F500435A61704790F8FC309B07FB
S2140048F0EBD590F83D30002BEAD0D0F8A430D0F8B5
S214004900B02093F90130DB0103F1824303F5004345
S2140049109A617047A0F13000D4E700BF2DE9F04758
S214004920089FBDF82490BDF82880044616468A469F
S2140049303A4600211D4609F0CFFC04F1300006F08F
S21400494069FD5C4BC4F8A0A003F13C02C4F8A46067
S214004950C4F8AC702263C4F8A8502360B378DFF8BC
S21400496060A1554F012101FA03F3C4F8B030AB78CB
S21400497084F8D69001FA03F34FF0020E00224FF6A9
S214004980FF70C4F8B830A4F8E2E04FF0FF334FF001
S214004990190E4FF003094FF07D0C84F8D820A4F8C8
S2140049A0DA20A4F8DC20A4F8DE20A4F8E02084F8BE
S2140049B0E42084F8F52084F8F620A4F8FC2084F897
S2140049C0002184F80121A4F8D000A4F8D200A4F8AD
S2140049D0D400C4F8EC3084F8D780C4F8F0A084F88B
S2140049E0F490A4F8F8C0C4F8E8E0C4F80421C4F8C9
S2140049F00821C4F8102184F81421C4F81821C4F83A
S214004A001C21C4F82021C4F82421C4F82821C4F8A5
S214004A102C21C4F8302184F83C2184F83D2184F808
S214004A203E21C4F840216176C4F80CE1C4F8343164
S214004A30C4F83831337B767B57F82300042B9CBFB1
S214004A401E4AD25CB6FBF2F102FB11624FF4807391
S214004A50D2B202F11C0103FA02F200EB810102F469
S214004A607C520830C4F8B410C4F8C400C4F8C0209F
S214004A702A7B687B57F82210042A9ABF0F4B9A5C51
S214004A800022B0FBF2F302FB1303DBB24FF480729A
S214004A9003F11C0002FA03F301EB800003F47C53DD
S214004AA00831C4F8BC00C4F8CC10C4F8C83020469E
S214004AB0BDE8F087A82902008C290200842902009C
S214004AC0003C1CC68379092B03D00B2B01D0002099
S214004AD07047D0F8A430D0F8B02093F90130DB014D
S214004AE003F1824303F5004311B108465A6170474B
S214004AF001209A61704700BF8379092B11D1D0F845
S214004B00A830D0F8B82093F90130DB0103F18243D6
S214004B1003F5004311B108465A61704701209A61B7
S214004B2070470020704700BF30B590F82E3183B034
S214004B300446002B71D190F82D3183F0010394F8D0
S214004B40002194F801518A4231D094F8140184F877
S214004B500011002284F80121C4F8082158B300216E
S214004B6072B66BB371B340F2E2420123C4F830214F
S214004B7084F82D3162B6A3790A2B2AD094F83D31F9
S214004B808B4235D0D4F8A03000293BD1BFF35B8FE1
S214004B902D4ADB4352E8000F184042E80005002D7E
S214004BA0F8D1BFF35B8F84F83D1103B030BD94F8A5
S214004BB01421002A33D10029D1D072B6002BD1D1CE
S214004BC00029D7D1002384F82E3162B6A3790A2BA8
S214004BD0D4D119B994F818319A0728D494F8FC302F
S214004BE0DB0794F83D3148BF81F001018B42C9D103
S214004BF0002DD8D094F80131002BD4D1D4F8A030B1
S214004C000029C3D0BFF35B8F0F4A52E8000F18434A
S214004C1042E80005002DC4D0F7E700238FE7002206
S214004C2084F8001184F80121C4F8082197E794F865
S214004C302831019143F0100384F8283104F1300044
S214004C4006F01AFC0199C9E7C41A002090F82C3126
S214004C50002B4AD0354A90F80131126800B5126927
S214004C608BB990F83E31012B22D0022B3BD190F825
S214004C70F430002B45D1D0F84031002B3CD180F8E1
S214004C803E315DF804FBD0F80431D0F80C11D31A8D
S214004C908B422BD3D0F80831C0F80421013BC0F872
S214004CA008314BB980F8013190F83E31012BDCD148
S214004CB0022380F83E31DAE71D4BD0F8A020BFF380
S214004CC05B8F53E8001F514043E8001EBEF1000F03
S214004CD0F7D1BFF35B8F90F83E31012BC5D190F82A
S214004CE00131002BE4D05DF804FB704790F83E31AC
S214004CF0022BBCD05DF804FB013BC0F840315DF8E8
S214004D0004FB002200F59473BFF35B8F53E8001F8B
S214004D1021F0200143E8001EBEF1000FF6D1BFF3DC
S214004D205B8F80F83E215DF804FB00BFE41B00208B
S214004D30C41A002090F82E3170B5044680F814117D
S214004D40002B63D190F82D3183F0010394F80161B4
S214004D5039BB94F8005172B65BB365B340F2E242D9
S214004D600123C4F8302184F82D3162B6A3790A2BCA
S214004D7028D094F83D31AB4233D0D4F8A030002D83
S214004D8039D1BFF35B8F284ADB4352E8001F194036
S214004D9042E800100028F8D1BFF35B8F84F83D513D
S214004DA070BD002584F80151C4F8085172B6002B76
S214004DB0D3D1002DD9D1002384F82E3162B6A37941
S214004DC00A2BD6D11DB994F818319A0720D494F836
S214004DD0FC30DB0794F83D3148BF85F00105AB4257
S214004DE0CBD1002EDAD094F80131002BD6D1D4F8EE
S214004DF0A030002DC5D0BFF35B8F0B4A52E8001FD2
S214004E00194342E800100028C6D0F7E700239DE7C4
S214004E1094F8283143F0100384F8283104F1300068
S214004E2006F02AFBD3E700BFC41A002000000000EB
S214004E30F8B590F82C3103B9F8BD044609F09CF992
S214004E40A379984A94F8D6100A2B08BF94F8FC3039
S214004E5052F8217008BFC3F3800694F8D830BD7AA4
S214004E6003F1FF3318BF0026012BEDB240F2DF80BE
S214004E7094F8283073408C4A84F8F430C4F8F02054
S214004E80B4F9D010481C12D0884803F0FBFD036824
S214004E909B6805469847092800F04882284609F08E
S214004EA0F1F8011C18BF01212046FFF73DFEB4F9BA
S214004EB0D2104A1C16D0A3790A2B39D07B4803F0AF
S214004EC0E1FD03689B6805469847092800F0D080F6
S214004ED0284609F0D7F8A379092B00F0D3800B2BCE
S214004EE000F0D080B4F9D4104B1C21D0A3790A2B43
S214004EF01ED06E4803F0C6FD03689B6805469847BB
S214004F00092800F03982284609F0BCF8A379092B55
S214004F100ED1D4F8A830D4F8B82093F90130DB01CC
S214004F2003F1824303F50043002800F0D4815A6160
S214004F30B4F934114F1C10D05C4803F0A3FD03688D
S214004F409B6805469847092800F07D812B6828460F
S214004F501B689847042800F07681B4F938114E1C77
S214004F6015D0524803F08EFD03689B6805469847A7
S214004F70092800F0E681284609F084F894F84030C5
S214004F80B0FA80F0400960F3C30384F84030B4F907
S214004F9036114D1C15D0454803F074FD03689B6818
S214004FA005469847092800F0D181284609F06AF896
S214004FB094F84030B0FA80F0400960F3041384F8A7
S214004FC04030B4F93A11D4F81851D4F82861481C86
S214004FD000F03281354803F055FD03689B680746AC
S214004FE09847092800F0C081384609F04BF8B0FA17
S214004FF080F77F0994F83C30002B40F0318184F82C
S2140050003C3194F83E1067F31045002952D194F8CD
S214005010182192074ED594F83D0094F840200028B9
S21400502000F05281D70649D546F0040646E0AA07A6
S21400503000F061813323BB72B4F8E230012293FAA8
S21400504012F39AB2003218BF0122A4F8E23084F8B4
S2140050502F21EB0600F1588194F82F31002B40F0F9
S2140050600F81D4F8E83003EB8303A4F8F83007E7A1
S2140050700F4BB4F9D21018680AF05AF8A379092B26
S2140050807FF42DAFD4F8A430D4F8B02093F90130D3
S214005090DB0103F1824303F50043002800F0198189
S2140050A05A611FE7F0290200003C1CC6CC190020FC
S2140050B0FC1E002094F83D0094F84020C2F3C00780
S2140050C067F38E35C2F3001294F8017162F3CF35A0
S2140050D067F34D3560F3C305002B00F0AB80981FD7
S2140050E018BF012094F82E2160F34105002A00F035
S2140050F09B8094F8F40011B1AF0740F1DF806FF3A6
S2140051000005032B71D015F0020340F0CE80002975
S2140051106BD063F3820594F82D3161F3861560F346
S214005120C815002B65D0D4F83031002B40F313811E
S21400513062F345150122013B62F38C25C4F8303139
S21400514005F002031BB1B30648BF46F00106321C49
S21400515018BF0122D4F82431C4F8286162F3492527
S214005160C4F8185125EA030304F58E72BFF35B8F6B
S21400517052E8001F194342E800100028F8D1BFF398
S2140051805B8FD4F82421BFF35B8F04F5907322EA7B
S214005190050553E8002F2A4343E800210029F8D1EB
S2140051A0BFF35B8FA379D4F81821C4F824210A2B07
S2140051B07FF442AE04F13005284605F0B5FE2846D9
S2140051C006F0D6F9D4F8BC50606B2A68A4F8120131
S2140051D080B282423FF430AED4F8CC10D4F8C82067
S2140051E00B681342FCD12860F8BD031C18BF0123CE
S2140051F08FE762F34515002A3AD094F8D83033B9D1
S21400520038B905F00203042262F38C259AE70028D9
S21400521063D015F00203F6D1032262F38C2563F304
S214005220041505F002038DE762F3000594F8F40018
S21400523013466EE7184655E794F83C3093BB84F85F
S2140052403C311F46DDE694F8D81081B32B6894F8FD
S214005250F4105B6909B194F82E11284698477CE64D
S21400526007B394F83C11002900F0AB800F46C8E65F
S21400527062F38C25AA077FF56AAF46F0100662E750
S21400528094F8283094F8F5107340DAB2914200F0A2
S214005290A480D4F8E83084F8F52003EB8303A4F860
S2140052A0F830EDE594F83C71ABE6002331E794F86E
S2140052B0F4202B68012A5B69CFD1CCE701287FF464
S2140052C01EAF45F001051CE7170748BF46F002066B
S2140052D0F4E69A6106E69A612AE6022363F38C25D1
S2140052E045F0100504F1300006F0C6F846F020063A
S2140052F005F0020326E704F0E5F9D4F8EC30C01A0E
S21400530003283FF697AEA4E604F0DCF9B4F8E230E2
S214005310C4F8EC00002B3AD03023BB72002294F87D
S2140053202F3184F8F620A4F8E22097E6544BB4F91F
S214005330D010186809F0FCFE01462046FFF7F4FB83
S214005340B5E52B6828461B69984717E62B6828465C
S2140053501B6998472CE60122002345F0200584F8B7
S2140053602E2184F82D3148E73B6838461B6998475C
S214005370B0FA80F77F093DE6414BB4F9D4101868BF
S21400538009F0D6FEA379092B3FF4C3ADD0E5AD06F0
S2140053907FF562AEB4F8DC10B4F8E020A4F8DA10BA
S2140053A0A4F8DE20F88BA4F8DC0094F8F600BD8B99
S2140053B0A4F8E050D0B994F82F31012284F8F620F2
S2140053C04CE604F1300006F073F8012384F83C3113
S2140053D046F0080694F83C3013E6B4F8F820002AA5
S2140053E03FF449AD013AA4F8F82049E507EE901AD3
S2140053F0B8EE677A07EE902AF8EE677A84F82F31CF
S214005400C7EE276A16EE900A16F03CFA18A3D3E900
S214005410002316F0D7F818A3D3E9002316F086FA6F
S21400542016F066FD07EE900A1EB19FED167A77EE2F
S214005430677A94F8D830C4ED3C7A022B04D0022365
S21400544084F8F4300023B8E717EE900A16F01AFA3C
S21400545000220D4B16F0B6F802460B4616F0B4F8CE
S21400546016F046FDC4F8F000E9E700BFAFF3008091
S2140054709A9999999999A93F721CC7711CC75B4064
S214005480FC1E00200000C842000049402DE9F843F9
S21400549004460F469046002A54D1456C4D1BED0F2E
S2140054A0D4F82831002B4BD094F8283143F0010370
S2140054B084F82831002694F8003133B994F828216E
S2140054C042F010021E4684F82821B4F93A11481C0E
S2140054D016D0294803F0D6FA03689B688146984799
S2140054E0092840D0484608F0CDFDB0FA80F04009C3
S2140054F030B194F8283143F0080384F828310026A8
S21400550094F840306DB1D90626D496B101234246B0
S214005510394684F83E3004F13000BDE8F84305F023
S2140055207FBC1A07F1D594F8283143F0020384F8BB
S214005530283194F818319B0706D40020BDE8F8837C
S2140055400126B8E7CD0FABE704F13000002105F0E7
S214005550AFFF0020BDE8F88394F8283143F0040339
S21400556084F82831E5E7D9F8003048461B699847A3
S214005570B0FA80F04009BBE7CC190020A0F130005B
S214005580FFF784BFF8B5D0F8283104460E46002B46
S2140055904AD090F8283143F0010380F828310025DE
S2140055A094F8003133B994F8282142F010021D46D1
S2140055B084F82821B4F93A11481C16D0264803F07E
S2140055C061FA03689B680746984709283CD0384626
S2140055D008F058FDB0FA80F0400930B194F8283150
S2140055E043F0080384F828310025002E94F8403054
S2140055F00CDAD90621D48DB10023314684F83E302A
S21400560004F13000BDE8F84005F044BC1A07F2D5B6
S21400561094F8283143F0020384F8283194F81831BE
S2140056209B0703D40020F8BD0125B9E704F130003C
S214005630002105F03DFF0020F8BD94F8283143F026
S214005640040384F82831E9E73B6838461B69984725
S214005650B0FA80F04009C0E7CC190020A0F1300075
S214005660FFF790BFF8B5D0F8A430BC4D93F90130E1
S214005670D0F8B02005EBC31304469A61D0F8A830E2
S214005680D0F8B82093F9013005EBC3130E469A61A3
S2140056900021FFF749FA3146204608F007FDD4F806
S2140056A0A43093F90120987805EBC212131800274E
S2140056B083F84070D4F8A81091F901308E78DB0199
S2140056C0E9188D1903F1824385F84070D4F8B0507C
S2140056D09560D4F8B8508D6002EB500210F0010FC0
S2140056E092F830104FF0050003F5004314BF60F346
S2140056F0071160F3030103EB560382F8301093F8AA
S2140057003020F0074FF005014CBF61F3071261F33C
S214005710030283F830202368914A5B68934240F086
S2140057201981A379092B22D004F1300005F0A4FEDC
S214005730D4F8A410894B91F90120897803EBC212A2
S2140057400A44092092F840106FF3000182F84010D6
S214005750D4F8A82092F90110927803EBC1131344F1
S21400576093F840206FF3000283F84020A071E368AE
S2140057702269DB0103F1824101F5004101EB520190
S21400578003F1824391F8300012F0010503F500435F
S214005790134414BF6FF3071065F3030081F830005D
S2140057A093F840206F4942F0010283F8402094F8B5
S2140057B0D60051F820301A686FF341021A601A6951
S2140057C09207FCD41A6842F001021A601A6912F0B5
S2140057D00102FBD11D68644962F305151D601D6852
S2140057E062F314551D601D6862F355551D601D68F3
S2140057F045F480351D601D6845F400351D601D6844
S21400580062F3CB251D601D6862F30A251D601D68C6
S21400581045F080051D601D6845F040051D601D684B
S21400582062F383051D60DD88052666F30205DD80CC
S214005830DD8845F02005DD80DD8862F30C35DD80EF
S214005840DD8862F34D35DD80DD8862F30825DD8076
S214005850DD8845F01005DD800D7862F341050D709A
S214005860D4F8AC208E68D5780122AA4016438E6004
S214005870EF088E69BF0007F1804E16430EF5205ED6
S2140058808E6105F00706DEF81CC0B7000426BE4091
S21400589046EA0C06CEF81C60CE6892B262F30F069B
S2140058A0CE600A7842F002020A704A6812F00202DB
S2140058B0FBD194F8D7E02D490EF12B073E4651F860
S2140058C027C062F3861C41F827C051F826205706E9
S2140058D0FBD451F82620254F4FF0060C6CF303023C
S2140058E041F8262051F8262042F0400241F82620B2
S2140058F07A6812F0180FFBD11D4A1E4E74300EF156
S21400590001010FFA8EFE42F8201006EBCE029179C6
S21400591041F002019171D179C807FCD4123505F027
S2140059207F0545F4007546F83E50D1798907FCD4CA
S2140059301A6842F002021A601A6912F00202FBD1DB
S2140059400123C4F81821C4F81C21C4F8202184F8C7
S2140059502C31F8BD09212046984708E70080004111
S21400596061470000F029020000280040001C0040AB
S21400597000E0004120E000414FF0FF30704700BFDC
S214005980A1F10200B0FA80F040097047022070478B
S214005990A1F10100B0FA80F040097047A1F10800BB
S2140059A0B0FA80F040097047807A7047A0F1040092
S2140059B0FAE700BF807A401AB0FA80F040097047D4
S2140059C0A0F10400F6E700BF08207047A0F104002D
S2140059D0FAE700BF00207047A0F10400FAE700BF16
S2140059E01123818183727047A0F10400F8E700BF9D
S2140059F0704700BFA0F10400FAE700BF014B18682B
S214005A0000F05EBED00A0020014B186800F066BEAB
S214005A10D00A0020014B186800F07ABED00A002099
S214005A20014B186800F030BED00A0020014B186801
S214005A3001F004BAD00A0020014B186800F01CBE22
S214005A40D00A0020014B186800F018BED00A0020CB
S214005A50014B186800F07ABED00A0020014B186887
S214005A6000F0A0BFD00A0020014B186800F0A6BFC7
S214005A70D00A0020014B186800F0D4BFD00A0020DE
S214005A80014B186800F0D6BFD00A00200368044A0D
S214005A901B6B934203D1034B186800F039BE1847BE
S214005AA0155A0000D00A0020A0F10400EEE700BF5F
S214005AB008B50368064A1B6B934205D1054B186868
S214005AC000F026FE00B208BD984700B208BD00BF31
S214005AD0155A0000D00A0020A0F10400E8E700BF35
S214005AE008B5036861B90B4ADB68934205D10A4BD7
S214005AF0186801F0A3F9012008BD9847012008BDE9
S214005B00064A9B689342F8D1034B186800F0BCFD28
S214005B10012008BD2D5A0000D00A0020215A00009E
S214005B20A0F10400DCE700BF30B583B01A4DADF835
S214005B3004009DF804102B6811F00104A3F812016C
S214005B4012D12146204606F0DDF82146012006F057
S214005B50D9F806F0CBF806F003F90368B3F5966FAC
S214005B6012D0002003B030BD0C49002006F0CAF861
S214005B700B49012006F0C6F828684021803006F060
S214005B808DF8002003B030BD0121064803F036FA38
S214005B90002003B030BD00BFD00A0020A95B000083
S214005BA0E15D0000CC1900202DE9F04F83B072B6FD
S214005BB08A490B6803F18000C3F81821C3F8140162
S214005BC062B6086872B6D0F80431D0F80021D0F872
S214005BD018419B1A48BF4033002C00F0D680D3F102
S214005BE03F0300F0D280D0F80451D0F81421A3422D
S214005BF028BF2346C5F14001994228BF19464619D9
S214005C00002900F0E8802C1D0444171DBE4238BF52
S214005C10A242C0F0CE800B2940F2CB80544214F052
S214005C20030400F0B78017784755012C06F1010CE5
S214005C3002F1010800F0B08057787770022C06F168
S214005C40020C02F1020800F0A7809778B77006F100
S214005C50030C032602F103080196A1EB040BABF13B
S214005C600406B6082F1901364FEA8609074414447D
S214005C704FF0000E0EF1010E54F804AB47F804ABDB
S214005C807645F7D8019CCB454C440CEB090708EB4E
S214005C90090E00F0898018F826800CF82680661C0D
S214005CA0B14240F2818002349EF801607E70A142CB
S214005CB07AD99EF80240BC705618D0F81421D0F855
S214005CC018410A44641A5B1AC0F81421C0F8184137
S214005CD064D0311D021D964238BF8842044671D3F7
S214005CE00B2B6FD9724212F003025FD0317801702D
S214005CF0012A00F1010406F1010E58D071784170B6
S214005D00022A00F1020406F1020E50D0B17881702A
S214005D10C41C06F1030E0327A3EB020CACF104012E
S214005D2089084D1C16444FEA8508024400210131BB
S214005D3056F8049B42F8049B8D42F8D8C44507EBFE
S214005D40080204EB08010EEB08060DD01EF82570BD
S214005D5004F82570541CA34206D9023274784C709D
S214005D60934201D9B2788A70D0F81421D0F818413D
S214005D70C0F804311A44E41AC0F81421C0F81841D7
S214005D801CB98030402105F089FF62B6012003B0BF
S214005D90BDE8F08FB446904601945EE7294401F0D2
S214005DA03F01C0F80411EBE7561886E7B6461746DB
S214005DB0B2E7741E561812F8017B04F8017FB2424F
S214005DC0F9D17AE7421EF41816F8011B02F8011FF3
S214005DD0B442F9D1C8E7164673E700BFD00A0020E0
S214005DE02DE9F04FD84883B0002940F0AB81016818
S214005DF0D1F808311A4402F03F02C1F80821002306
S214005E00BFF35B8F81F81031BFF35B8F0468BFF37D
S214005E105B8F4FF0010104F58873D3E84F2FC3E87A
S214005E20401F0028F9D1BFF35B8F12F0FF0F40F040
S214005E30DC80D4F80861D4F80C118E4200F0918111
S214005E4004F1400202EB060704F1C00EC0F0D18058
S214005E50C6F140031944402928BF40218B4228BF81
S214005E600B46002B00F0A18106F1400506F1440C1C
S214005E706019A44404F1C408404538BFE645C0F0A4
S214005E808A810B2B40F28781404210F0030000F01D
S214005E906181965D84F8C060012804F1C10C07F1A9
S214005EA0010800F059817E7884F8C160022804F168
S214005EB0C20C07F1020800F04F81BE7884F8C26079
S214005EC0032607F1030804F1C30C0196A3EB000BAD
S214005ED0ABF10406B60805440136C030254420441C
S214005EE04FEA86090027013755F804AB40F804ABA3
S214005EF0B742F8D30198CB4548440CEB090508EBAC
S214005F0009070DD018F826800CF82680461CB342E8
S214005F1006D902307E786E70834201D9B878A870B0
S214005F200EEB0300CB1A00F0FC8004F14405061DBE
S214005F30B24238BFA842C0F025810B2B40F2228126
S214005F40554215F0030500F0098194F840200270D0
S214005F50012D00F1010804F1410200F0008194F8DF
S214005F6041204270022D00F1020804F1420200F0C6
S214005F70F68094F84220827000F1030804F1430290
S214005F800327A3EB0509A9F10406B60805F1400CA2
S214005F9001362844A4444FEA860B4FF0000A0AF163
S214005FA0010A5CF8045B40F8045B5645F7D8D9450F
S214005FB05F4408EB0B0002EB0B0500F0B28012F812
S214005FC0262008F826207A1C934240F2AA80023740
S214005FD06A784270BB4240F2A480AB788370704609
S214005FE005F070FE002840F0A280012003B0BDE856
S214005FF0F08F891B06F1400306F14400402904EBAC
S2140060000308204404F1C40528BF4021A84538BF32
S2140060108645C0F0AD800B2940F2AA80C8F1000882
S21400602018F0030800F09280925D84F8C020B8F162
S214006030010F04F1C10507F1010600F089807A78A6
S21400604084F8C120B8F1020F04F1C20507F1020678
S2140060507ED0BA7884F8C220FE1C04F1C3054FF047
S2140060600309434408F1C000E2582250A1EB080897
S214006070A8F1040223449208013220445F68476076
S214006080022A4FEA820C35D09F688760032A31D0F7
S214006090DF68C760042A2DD01F690761052A29D04A
S2140060A05F694761062A25D09F698761072A21D044
S2140060B0DF69C761082A1DD01F6A0762092A19D03E
S2140060C05F6A47620A2A15D09F6A87620B2A11D038
S2140060D0DF6AC7620C2A0DD01F6B07630D2A09D032
S2140060E05F6B47630E2A05D09F6B87630F2A01D02C
S2140060F0DB6BC363E045E14405EB0C0306EB0C00E9
S2140061000FD016F8226005F8226009F101029142CC
S21400611007D909F1020942785A70494501D98278AF
S2140061209A70704605F0CEFD00283FF45EAFBFF3D0
S2140061305B8F002384F810310120BFF35B8F03B020
S214006140BDE8F08F01685AE6D00A00203E46754644
S214006150C14686E7B846F4460190B7E680462F4625
S2140061600FE7BFF35B8F84F81021BFF35B8F3CE72C
S21400617004F1BF03781817F8012B03F8012F8742A4
S214006180F9D1CEE70138134412F8015B00F8015F3D
S2140061909A42F9D1C5E704F1BF00FE1817F8015B73
S2140061A000F8015FBE42F9D1BAE67046BAE600BF13
S2140061B070B5164E346814F0010402D0144B1868FB
S2140061C070BD4FF490700CF0E3FF054600F18003BD
S2140061D0C0F800410F49C5F80441C5F81431C5F8A8
S2140061E00841C5F81841C5F80C4185F81C4185F8EA
S2140061F01041A5F8124185F81141032005F082FDF3
S214006200034A012315602846336070BDCC0A00207F
S214006210140B0020295B00002DE9F041C74AD2F894
S214006220A8306FF386138CB0C2F8A830D2F8A83026
S2140062305906FBD4D2F8A830C049042060F3030303
S214006240C2F8A830D2F8A83043F04003C2F8A8300D
S2140062504B68DB06FCD4BA4BBA491A6942F4806232
S2140062601A619A6942F001029A61A1F1D7000322ED
S21400627006F0F4F80446002800F09C81B24B0FCBE1
S2140062808DE80F0003681D0FE8B2C3F3036800F142
S21400629030073730092D88BF07465FFA88F0C3F30A
S2140062A0035600F1300C3730B8F1090FC8BF8446EA
S2140062B0F0B2C3F303458DF811C000F1300C37304F
S2140062C0092EC8BF8446E8B2C3F3033E8DF812C059
S2140062D000F1300C3730092DC8BF84465FFA8EF0C7
S2140062E08DF810708DF813C0C3F3032700F1300C3F
S2140062F03730BEF1090FD4BFE6468646F8B2C3F380
S21400630003160A468DF814E000F1370E3030092FD8
S214006310CCBF77460746F0B212688DF8157003F0CA
S2140063200F0300F137073030092ECCBF3E46064635
S214006330D8B2150F8DF8166000F137063030092BED
S214006340CCBF33460346E8B2C2F3036C8DF8173071
S21400635000F137033030092D88BF18465FFA8CF3FA
S214006360C2F3035E8DF8180003F137003033BCF13A
S214006370090FCCBF84469C465FFA8EF3C2F30347F0
S2140063808DF819C003F1370C3033BEF1090FD8BFB2
S2140063909C46FBB2C2F303368DF81AC003F1370CE5
S2140063A03033092FD8BF9C46F3B2C2F303258DF8CD
S2140063B01BC003F1370C3033092ED8BF9C46EBB216
S2140063C0C2F3031002998DF81CC003F1370C30336A
S2140063D0092DCCBF65461D46C3B209688DF81D5011
S2140063E002F00F0203F1370530330928CCBF2846E8
S2140063F01846D3B24FEA117E8DF81E0003F137001F
S2140064003033C1F30367092ACCBF02461A465FFA47
S2140064108EF5F8B28DF81F2005F137023035C1F33E
S2140064200356BEF1090F88BF154600F1370230301B
S214006430092FC8BF1046F3B203F137028DF82100CA
S2140064403033C1F30340092EC8BF1346C2B2C1F3AE
S214006450033E02F1370830320928D8BF90465FFA6B
S2140064608EF2C1F303278DF822302046039B8DF869
S214006470205002F137043032BEF1090FD8BF14465F
S214006480FAB21B688DF82440C1F3031602F13704F4
S2140064903032092FCCBF27461746F2B201F00F0163
S2140064A08DF8257002F137073032092ECCBF3E46F4
S2140064B01646CAB21D0F8DF8266002F13706303236
S2140064C00929CCBF31461146EAB2C3F3036C8DF8F6
S2140064D0271002F130013732092D88BF11465FFAC6
S2140064E08CF2C3F3035E8DF8281002F130013732C8
S2140064F0BCF1090FD4BF8C4694465FFA8EF2C3F304
S214006500034402F137013032BEF1090FCCBF8E468C
S2140065109646E1B2C3F303378DF82AE001F1370E51
S2140065203031092CD8BF8E46FAB2C3F303268DF855
S2140065302BE002F1300E373208E000BF001C0040AE
S21400654000080040DF000020042B0200092FD4BF03
S21400655077461746C3F30315F4B203F00F03DAB217
S214006560E9B28DF82C7004F130073734092ED8BF05
S2140065703C4601F1300E02F1300737313732092D33
S214006580D8BF7146092BD4BF3B4613468DF82E1054
S2140065908DF82F308DF823808DF829C08DF82D408A
S2140065A00DF10F030DF12F0113F8012F20F8022F24
S2140065B08B42F9D12A4B2B4A2B4F2C4D2C4880214D
S2140065C04FF080764FF0804482F8501382F85113D3
S2140065D082F8521382F853139E609C629F625E613B
S2140065E093F8582002F0FB0283F8582093F85820BE
S2140065F002F0FE0242F0010283F8582093F83C2095
S21400660002F0F0024FF0007142F0070283F83C20DF
S21400661099609C629D62596193F8592002F0FB02D2
S21400662083F8592093F8592002F0FE0242F0010246
S21400663083F8592093F83C2002F00F0242F07002D3
S21400664083F83C2005F052FE05F00AFB094805F0E9
S2140066507BFE05F091FE01200CB0BDE8F08100BF86
S2140066600080004100E100E0000100C0000200C020
S214006670D40A0020000000200120704708B505F06D
S2140066806FFB006808BD00BF38B590F81C3103B139
S21400669038BD04460125184684F81C51064905F005
S2140066A031FB2846054905F02DFB04F1800040210A
S2140066B0BDE8384005F0F2BAA95B0000E15D0000D5
S2140066C003460022C0F80021C0F81821C0F80421B3
S2140066D04021803083F8112105F0E0BA38B5044631
S2140066E04FF08245D4F80821D4F80C319A4200D1F4
S2140066F038BD05F02FFB0028FAD094F81231DB07DE
S214006700F6D56B7B03F07F03022BEBD038BD00BFC2
S21400671038B5054605F01EFB044670B195F81241E3
S21400672014F0010409D04FF082435C7B04F07F0430
S214006730A4F10204B4FA84F464090348002102F0C8
S214006740EBFF204638BD00BF804F1200D0F8003166
S214006750D0F80421934200F016812DE9F04F5A1C20
S21400676002F03F02C45CC0F8002183B072B6D0F8D5
S2140067700431D0F80021D0F818519B1A48BF403396
S214006780002D00F0E380D3F13F0300F0DF80D0F867
S2140067900461D0F81421AB4228BF2B46C6F1400155
S2140067A0994228BF19468719002900F0F880351D40
S2140067B0054402F1040E774538BFAA42C0F0DA80DD
S2140067C00B2940F2D780554215F0030500F0C38030
S2140067D092F800E000F806E0012D07F1010802F14A
S2140067E0010900F0BA8092F801E087F801E0022D76
S2140067F007F1020802F1020900F0AF8092F802E009
S21400680087F802E007F10308032702F1030900975F
S214006810A1EB050BABF10407BF0806EB050E01372D
S2140068204FEA870A864415444FF0000C01940CF199
S214006830010C55F8044B4EF8044B6745F7D8009DFD
S214006840019CD345554408EB0A0E09EB0A0C00F0F0
S2140068508C8019F8279008F827906F1CB94240F2F0
S214006860848002359CF801708EF80170A9427CD9AC
S2140068709CF802508EF802505718D0F81421D0F821
S21400688018510A446D1A5B1AC0F81421C0F8185142
S21400689065D0011D3A1D904238BF8F42054675D31C
S2140068A00B2B73D9424212F0030260D03978017084
S2140068B0012A00F1010507F1010E59D079784170DF
S2140068C0022A00F1020507F1020E51D0B978817054
S2140068D0C51C07F1030E4FF00308A3EB020CACF146
S2140068E0040189084E1C17444FEA86090244002119
S2140068F0013157F804AB42F804AB8E42F8D8CC45C9
S21400690008EB090205EB09010EEB09070DD01EF88E
S21400691026E005F826E0551CAB4206D902327D7803
S2140069204D70934201D9BA788A70D0F81421D0F805
S2140069301851C0F804311A44ED1AC0F81421C0F8F2
S21400694018511DB98030402105F0A8F962B620B272
S21400695003B0BDE8F08FB8469146009558E731443D
S21400696001F03F01C0F80411EBE7571885E7BE4673
S2140069709046B2E77D1E571812F801EB05F801EFB6
S214006980BA42F9D179E74FF0FF307047421EFD1842
S21400699017F8011B02F8011FBD42F9D1C5E71746DB
S2140069A06FE700BFD0F80421D0F800319A421ABF32
S2140069B0D0F80031C05C4FF0FF30704770B5044629
S2140069C00E464FF0824505F0C5F950B394F8120113
S2140069D010F0010025D06B7B03F07F03022B01D063
S2140069E0002070BD94F81C0100B970BDD4F80831C1
S2140069F0D4F80C219B1A5A1E0ED4002AE3D0D4F8E1
S214006A000C31234483F84060D4F80C31013303F092
S214006A103F03C4F80C3170BD03F13F02002AD2D008
S214006A20EDE770BDD0F80431D0F80001181A48BF61
S214006A3040307047D0F80831D0F80C219B1A581E09
S214006A4048BF03F13F0070472DE9F04F00F588730B
S214006A5083B04FF00101BFF35B8FD3E84F2FC3E83D
S214006A60441F002CF9D1BFF35B8F12F0FF0F40F0EC
S214006A70E480D0F80861D0F80C118E4200F0B681A0
S214006A8000F1400303EB060700F1C005C0F0D88014
S214006A90C6F140021144402928BF40218A4228BF3F
S214006AA00A46002A00F0C78106F1400E06F14404AB
S214006AB000EB0E08044400F1C40CE04538BFA542C4
S214006AC0C0F0AE810B2A40F2AB816C4214F0030496
S214006AD000F07F819E5D80F8C060012C00F1C10C43
S214006AE007F1010800F07B817E7880F8C160022CF7
S214006AF000F1C20C07F1020800F07181BE7880F840
S214006B00C260032607F1030800F1C30C0196A2EB4E
S214006B10040BABF10407BF080EEB04060137C034C4
S214006B20064404444FEA87094FF0000E0EF1010EAA
S214006B3056F804AB44F804ABBE45F7D3019CCB45EE
S214006B404C4408EB090E0CEB09060FD018F827800A
S214006B500CF82780671CBA4208D902349EF80170E8
S214006B607770A24202D99EF80240B470AC188A1A16
S214006B7000F01A81261D00F14407BC4238BFB3421C
S214006B80C0F045810B2A40F242815F4217F00307AE
S214006B9000F0298190F840302370012F04F1010C99
S214006BA000F1410300F01D8190F841306370022F20
S214006BB004F1020C00F1420300F0138190F8423019
S214006BC0A37004F1030C00F143034FF00309A2EB9A
S214006BD00708A8F1040E4FEA9E0E07F140060EF1D4
S214006BE0010E3C4406444FEA8E0A0027013756F849
S214006BF004BB44F804BBBE45F8D8D04509EB0A04EC
S214006C0003EB0A070CEB0A0600F0CE8013F82E30D2
S214006C100CF82E30631C9A4240F2C68002347B7811
S214006C207370A24240F2C080BB78B3700446284618
S214006C3005F048F8002840F0BE8003B0BDE8F08FAD
S214006C40891B06F1400206F14404402900EB020CC1
S214006C50044400F1C40E28BF4021F44538BFA542C5
S214006C60C0F0CB800B2940F2C8806C4214F00304BD
S214006C7000F0AB809B5D80F8C030012C00F1C106AF
S214006C8007F1010E00F0A9807B7880F8C130022C55
S214006C9000F1C20607F1020E00F09F80BB7880F874
S214006CA0C23007F1030E00F1C3064FF0030C1319B0
S214006CB0034404F1C0081A6840F808200F1B3A1F66
S214006CC0920800EB08040132D3F80480C4F804806C
S214006CD0022A4FEA82084FD0D3F80890C4F80890EA
S214006CE0032A49D0D3F80C90C4F80C90042A43D059
S214006CF0D3F81090C4F81090052A3DD0D3F814901D
S214006D00C4F81490062A37D0D3F81890C4F8189010
S214006D10072A31D0D3F81C90C4F81C90082A2BD030
S214006D20D3F82090C4F82090092A25D0D3F82490D0
S214006D30C4F824900A2A1FD0D3F82890C4F82890C4
S214006D400B2A19D0D3F82C90C4F82C900C2A13D008
S214006D50D3F83090C4F830900D2A0DD0D3F8349084
S214006D60C4F834900E2A07D0D3F83890C4F8389078
S214006D700F2A01D0DB6BE36347450CEB080306EBF9
S214006D8008040EEB080C0FD01EF8227006F82270CE
S214006D905A1C914208D902339CF80120627099422D
S214006DA002D99CF80230A3700446284604F08AFFF5
S214006DB000283FF442AFBFF35B8F002384F8103106
S214006DC0BFF35B8F03B0BDE8F08FBE46A4462E46E9
S214006DD06DE7B8460194AC4699E6A44667E7019489
S214006DE095E6B946F3E6B946A446F0E6BFF35B8FF0
S214006DF080F81021BFF35B8F1FE700F1BF037C18FC
S214006E0017F8012B03F8012FA742F9D1CCE7013C74
S214006E101A4413F8016B04F8016F9342F9D1C3E7E3
S214006E2000F1BF0407EB020E17F8016B04F8016FC0
S214006E30BE45F9D19AE62C4699E600BF38B590F8DB
S214006E401C3103B938BD0546FFF7FEFD4FF08244FE
S214006E50D5F80821D5F80C319A420BD004F07AFF09
S214006E6040B195F81231DB0704D5637B03F07F034E
S214006E70022BEDD00024214685F81C41204604F064
S214006E8041FF2146012004F03DFF04F02FFFC5F826
S214006E900041C5F81841C5F80441C5F80841C5F8D1
S214006EA00C4185F8104185F8114138BD90F8103135
S214006EB003B17047D0F80821D0F80C319A4200F0A0
S214006EC0FD802DE9F04F00F5887383B04FF0010187
S214006ED0BFF35B8FD3E84F2FC3E8441F002CF9D1D4
S214006EE0BFF35B8F12F0FF0F40F0E580D0F808612B
S214006EF0D0F80C118E4200F0AB8100F1400303EB9A
S214006F00060700F1C005C0F0DA80C6F14002114461
S214006F10402928BF40218A4228BF0A46002A00F09E
S214006F20BC8106F1400E06F1440400EB0E08044452
S214006F3000F1C40CE04538BFA542C0F0A3810B2A7F
S214006F4040F2A0816C4214F0030400F077819E5D4D
S214006F5080F8C060012C00F1C10C07F1010800F0B8
S214006F6071817E7880F8C160022C00F1C20C07F1B6
S214006F70020800F06581BE7880F8C260032607F13B
S214006F80030800F1C30C0196A2EB040BABF1040757
S214006F90BF080EEB04060137C034064404444FEA2B
S214006FA087094FF0000E0EF1010E56F804AB44F8B8
S214006FB004ABBE45F7D3019CCB454C440CEB09060D
S214006FC008EB090E0FD018F827800CF82780671CEE
S214006FD0BA4208D902349EF801707770A24202D9EC
S214006FE09EF80240B470AC188A1A58D0261D00F1DC
S214006FF04407BC4238BFB342C0F03B810B2A40F284
S21400700038815F4217F0030700F01F8190F8403088
S2140070102370012F04F1010C00F1410300F01681EA
S21400702090F841306370022F04F1020C00F1420325
S21400703000F00C8190F84230A37004F1030C00F1CC
S21400704043034FF00309A2EB0708A8F1040E4FEA2A
S2140070509E0E07F140060EF1010E3C4406444FEA30
S2140070608E0A0027013756F804BB44F804BBBE4519
S214007070F8D8D04509EB0A040CEB0A0603EB0A071E
S2140070800DD013F82E300CF82E30631C9A4206D919
S21400709002347B787370A24201D9BB78B370044681
S2140070A0284604F00FFE30B1BFF35B8F002384F850
S2140070B01031BFF35B8F03B0BDE8F08F7047891BBC
S2140070C006F1400206F14404402900EB020C044499
S2140070D000F1C40E28BF4021F44538BFA542C0F0D9
S2140070E0BE800B2940F2BB806C4214F0030400F013
S2140070F09E809B5D80F8C030012C00F1C10607F130
S214007100010E00F096807B7880F8C130022C00F1EA
S214007110C20607F1020E00F08E80BB7880F8C230FF
S21400712007F1030E00F1C3064FF0030C13190344D6
S21400713004F1C0081A6840F808200F1B3A1F92088E
S21400714000EB08040132D3F80480C4F80480022A55
S2140071504FEA82084FD0D3F80890C4F80890032A64
S21400716049D0D3F80C90C4F80C90042A43D0D3F836
S2140071701090C4F81090052A3DD0D3F81490C4F8A7
S2140071801490062A37D0D3F81890C4F81890072A17
S21400719031D0D3F81C90C4F81C90082A2BD0D3F812
S2140071A02090C4F82090092A25D0D3F82490C4F85B
S2140071B024900A2A1FD0D3F82890C4F828900B2AC7
S2140071C019D0D3F82C90C4F82C900C2A13D0D3F8EE
S2140071D03090C4F830900D2A0DD0D3F83490C4F80F
S2140071E034900E2A07D0D3F83890C4F838900F2A77
S2140071F001D0DB6BE36347450CEB080306EB0804A2
S2140072000EEB080C3FF44BAF1EF8227006F8227007
S2140072105A1C91427FF643AF02339CF801206270FD
S21400722099427FF63CAF9CF80230A37037E7BE4623
S2140072302E46A4467AE74FF0020C77E7B846AC46EF
S2140072400194A1E6012601969EE6A446B946FAE612
S214007250BFF35B8F80F81021BFF35B8F2BE700F145
S214007260BF037C1817F8012B03F8012FA742F9D1AA
S21400727015E7013C1A4413F8016B04F8016F9342BA
S214007280F9D10CE700F1BF0407EB020E17F8016B0B
S21400729004F8016FBE45F9D1A5E62C46A4E600BF6A
S2140072A008B5FEF785FF014B186008BDD00A002020
S2140072B0406A7047007970470120704710B5044651
S2140072C007F000F820460C4B40F8303B04F0A2F8DC
S2140072D00A4A226000233C32A4F8FC30C4F8183175
S2140072E0C4F81C31C4F82031C4F82431C4F828315D
S2140072F02263204610BD00BF64310200A8290200A8
S2140073002DE9F04FBF4BDFF840A3BF4ABF49C04D41
S214007310DFB008AC00274FF00308077081468DE801
S21400732008012046BB4B0AF00FFBA1686268237B6E
S214007330CAF80810CAF80420216962698AF80C3075
S214007340A369CAF81010CAF81420E169226ACAF8BC
S2140073501830636ACAF81C10CAF8202094F828105F
S21400736094F82920CAF8243094F82A308AF828108D
S2140073708026A18D8AF829208AF82A3094F82E20B3
S21400738094F82F308AF82F30AAF82C108AF82E207E
S21400739014A932460AF1300016F082FE324634A9AD
S2140073A00AF1B00016F07CFECDF804809A49D4F8B5
S2140073B03031D4F834210091D4F83811CAF830317D
S2140073C0CAF83421D4F83C31D4F84021CAF8381130
S2140073D0CAF84021CAF83C312046904B904A914961
S2140073E008F0CAFB63686B60A369A26894F80CE0B7
S2140073F02069AB61E369AA6085F80CE0626994F8DD
S21400740028E02861EB61206A94F8293094F82AC0B5
S2140074106A612862626AA08D85F828E085F82930BE
S21400742094F82EE094F82F3085F82AC085F82EE0E0
S21400743085F82F3014A96A62A885324605F1300017
S21400744016F02EFE324634A905F1B00016F028FEDE
S21400745004F5987007C8D4F84031C5F84031D4F820
S2140074603C31C5F8300194F844E1C5F834112046A3
S214007470C5F838214FF40041C5F83C314FF0010AF9
S21400748085F844E10AF006F8674BA279B4F804C020
S214007490664DCDF804A000933146A668AA71A5F8FB
S2140074A004C0AE602046624B624A634D05F040FF62
S2140074B004F10C0007C894F806E0A368A68885F8CF
S2140074C006E0AB6094F818E0E369E860206A94F898
S2140074D028C0AE802961667E616A6A6185F818E018
S2140074E0226BD4F82AE0EB612862636BA06B6E76A1
S2140074F0696285F828C0C5F82AE02A63A8636B632A
S21400750094F83C3094F83D00216C94F844E094F8EC
S2140075104560A26C85F83C3085F83D00E36C206D34
S21400752094F858C094F85BB0296485F844E0616D1F
S21400753094F859E085F84560AA6494F85A60226E7B
S214007540EB642865636EB4F85C0085F858C085F86F
S21400755059E085F85A6085F85BB0A5F85C002A66A5
S2140075606B666965A16E354BCDF800A02046A9660E
S214007570334A344D402106F0E1FB94F806E0A26859
S214007580E368A6882069616985F806E0AA6094F831
S21400759018E0E269EB60236A94F828C0AE802861A0
S2140075A0667E606A696185F818E0216BD4F82AE087
S2140075B0EA612B62626BA36B85F828C06E76686200
S2140075C029636A63AB63C5F82AE094F83CE0CDF81B
S2140075D000A094F8446094F83D10226C85F83CE0D6
S2140075E085F8446094F845E0266D85F83D102A64D9
S2140075F0A16CE26C85F845E02E6594F858E0666D5F
S214007600A96423E01C2D02007C2D02000C2D020034
S214007610841800203C2C02005C2D0200FC2C02008A
S2140076202C2C02004C2D02001C2F0200741400208B
S214007630DC2E0200AC2D0200E0110020EC2E020031
S2140076408C2E02004C12002040170020EA6494F8AA
S2140076505A1094F859206E6585F858E094F85B60E7
S214007660B4F85CE085F8592085F85A1085F85B6018
S214007670A5F85CE02046B94DB94BBA4A202106F081
S2140076805DFB94F806E0A268E368A6882069616955
S21400769085F806E0AA6094F818E0E269EB60236AD1
S2140076A094F828C0AE802861667E606A696185F8B5
S2140076B018E0216BD4F82AE0EA612B62626BA36BB8
S2140076C085F828C06E76686229636A63AB63C5F87E
S2140076D02AE094F83CE0CDF800A094F8446094F8D2
S2140076E03D10226C85F83CE085F8446094F845E04F
S2140076F0266D85F83D102A64A16CE26C85F845E09D
S2140077002E6594F858E0666DA964EA6494F85A10F9
S21400771094F859206E6585F858E094F85B60B4F8E4
S2140077205CE085F8592085F85A1085F85B60A5F866
S2140077305CE020468C4D8D4B8D4A102106F0FEFAFB
S214007740B4F804E0A268E368A67920696169A5F840
S21400775004E0AA6094F818E0E269EB60236A94F803
S21400776028C0AE712861667E606A696185F818E097
S214007770216BD4F82AE0EA612B62626BA36B6E760B
S214007780686285F828C0C5F82AE06A63AB63296397
S21400779094F83C1085F83C1094F83D20236C94F83F
S2140077A044C094F845000397A16C85F83D202B64EF
S2140077B0E26C236DA96494F8581085F844C085F8E7
S2140077C0450094F859C0606DEA642B6594F85B2018
S2140077D094F85A3085F85810B4F85C10686585F847
S2140077E059C085F85A3085F85B20A5F85C104FF034
S2140077F0680E604DDFF89CC15F4E604B604ACDF866
S21400780008E0204608210196CDF800C006F0F0FDFD
S214007810B4F804E0A268E368A67920696169A5F86F
S21400782004E0AA6094F818E0E269EB60236A94F832
S21400783028C0AE712861667E606A696185F818E0C6
S214007840216BD4F82AE0EA612B62626BA36B6E763A
S21400785085F828C0C5F82AE029636A63AB636862C6
S21400786094F83C0094F8442094F83D10236C85F876
S2140078703C0085F84420A06C226D94F8456085F89D
S2140078803D102B64E16C636DA8642A6594F859007A
S21400789094F85A2085F84560E96494F85860B4F87E
S2140078A05C106B6585F8590094F85B30B4F85E00A0
S2140078B085F85A204FF0650CB4F8602085F85B30E8
S2140078C0A5F85C10A5F85E00A5F86020DFF8C8E013
S2140078D085F85860B4F862600397CDF808C0616E0A
S2140078E0284BCDF804E0A26E009394F870E0A5F85B
S2140078F06260666FE36EB4F880C06966AA66A16FC0
S214007900E26F85F870E06E6794F882E094F8836022
S214007910EB66A967EA67A5F880C085F882E085F877
S21400792083602046184B194A194D042106F060FD65
S21400793004F10C0007C8B4F804E0A368A679A5F81B
S21400794004E0AB6094F818E0E369E860206A94F815
S21400795028C0AE712961667E616A1FE0AC12002005
S214007960FC2E02009C2E02000C1300200C2F02009E
S214007970AC2E02006C1300202C2E0200CC2D020030
S214007980BC2E0200FC2D0200DC2D0200CC2E0200D4
S214007990F0130020EC2D02003C2E02006A6185F8F0
S2140079A018E0226BD4F82AE0EB612862636BA06BC8
S2140079B06E76696285F828C0C5F82AE02A63A8634F
S2140079C06B6394F83C3094F83D00216C94F844E0E6
S2140079D094F84560A26C85F83C3085F83D00E36C71
S2140079E0206D94F858C094F85BB0296485F844E09C
S2140079F0616D94F859E085F84560AA6494F85A6079
S214007A00B4F85E20EB642865B4F86030B4F85C0027
S214007A10696585F858C085F859E085F85BB0A5F823
S214007A205C00A5F85E20A5F8603085F85A60B4F8CA
S214007A306260616EA36EE06E94F870E0A5F8626016
S214007A406966666FA16FB4F880C0AB66E866E36FE0
S214007A5085F870E06E6794F882E094F88360A96712
S214007A60BE4AEB6720464FF40011A5F880C085F8A3
S214007A7082E085F8836006F02FFC04F10C0007C84E
S214007A80B74DA36894F818C0B4F804E0A679AB60C4
S214007A9085F818C0E369D4F82AC094F828B0A5F889
S214007AA004E0AE7194F819E0266AE86029616A611C
S214007AB0EB61C5F82AC0636AAA4A85F819E0204631
S214007AC04FF480012E626B6285F828B006F004FC45
S214007AD004F10C0007C8A44DA36894F818C0B4F8C5
S214007AE004E0A679AB6085F818C0E369D4F82AC02C
S214007AF094F828B0A5F804E0AE7194F819E0266A68
S214007B00E86029616A61EB61C5F82AC0636A974A32
S214007B1085F819E020464FF400012E626B6285F866
S214007B2028B006F0D9FB924DA688AE8004F10C0072
S214007B3007C8052694F806E0A3680096267E94F803
S214007B4019C085F806E0AB6094F828E0E36929617F
S214007B506A61616A226A2E76D4F82A60E86085F83F
S214007B6019C0EB612A62696285F828E0C5F82A60C8
S214007B702046804D804B4FF000424FF0006105F0EC
S214007B8091FEB4F804E0A268E368A679206961690A
S214007B90A5F804E0AA6094F818E0E269EB60236AAE
S214007BA094F828C0AE712861667E606A696185F8BF
S214007BB018E0216BD4F82AE0EA612B6294F83420AE
S214007BC0A36B85F828C06E7668620426C5F82AE09E
S214007BD085F83420AB632963E16B94F840E0674B8B
S214007BE000962046E96385F840E04FF080424FF06B
S214007BF0806105F057FE04F108000DC8604DA188AD
S214007C0094F806E0A98085F806E0616994F818E023
S214007C10A860EA60607EE2692B61236A94F834C04B
S214007C20696185F818E0616A94F828E06876EA6188
S214007C30D4F82A00226B2B62A36B85F834C06962E5
S214007C4085F828E0C5F82A00AB632A63E26BCDF816
S214007C50008094F840E0EA6385F840E02046494D0D
S214007C60494B4FF000524FF0007105F01BFE94F8A0
S214007C7006C0A268E368B4F804E02069616985F884
S214007C8006C0AA6094F818C0E269EB60236A94F80C
S214007C902880A5F804E0286194F819E0606A696114
S214007CA085F818C0216BD4F82AC0EA612B6294F8D4
S214007CB03420A36BC5F82AC085F819E0686285F8F9
S214007CC028802963AB6385F83420E26BCDF800A0EA
S214007CD094F840E0EA6385F840E020462B4B4FF0EE
S214007CE080524FF0807105F0DDFD04F108000FC8EA
S214007CF0DFF89CE094F806C0A5888EF806C094F8D5
S214007D0019C094F81880AEF80450CEF80800E5695B
S214007D10206ACEF80C10CEF8102094F828A0CEF8E2
S214007D201430D4F82AB0236B8EF819C0A26B94F8DE
S214007D3034C0616A8EF81880CEF81C50CEF8200049
S214007D408EF828A0CEF82AB0CEF830308EF834C0A0
S214007D50CEF83820CEF824101CE000BF8C2C020091
S214007D60501100209C2C020080110020AC2C020038
S214007D70B0110020180B0020BC2C0200CC2C0200F6
S214007D8084100020C8100020DC2C0200EC2C02001E
S214007D900C110020E16B0297019694F84060CC4DE0
S214007DA000952046CEF83C108EF84060C94BCA4A73
S214007DB04FF40061FCF7B2FDC84BA779A668E568EA
S214007DC02069616994F81880E269B4F804E094F8D0
S214007DD019C09F719E60676A94F82860DD6018611C
S214007DE0D4F82A50606B596183F81880A16B94F818
S214007DF03C80DA61226AA3F804E083F819C01A62AC
S214007E005F6283F82860C3F82A505863996383F842
S214007E103C8094F83D80A26C9A64E26D0792D4E9A7
S214007E201AABE26C94F84000616C94F85070DA6417
S214007E30079A94F83EC094F8516094F8525083F82C
S214007E4040005964606DA16D83F85070DA65276F45
S214007E50226E83F83D8083F83EC083F8516083F835
S214007E605250666F586599651A66C3E91AAB1F6764
S214007E70D4F88000D4F89050C3F88000D4E91E12DD
S214007E80D4F89400C3F89050D4F898505E67D4E9BC
S214007E9022ABD4F8A060C3F89400C3F89850D4F886
S214007EA09C00D4F8A450C3F89C00C3F8A060D4F893
S214007EB0A800D4F8AC60C3F8A450D4F8B050C3F807
S214007EC0A800C3E91E12D4F8B400C3F8AC60194683
S214007ED0D4F8B860C3F8B050D4F8BC40389DC3F8A6
S214007EE0B400C3E922ABC3F8B860C3F8BC40C3F81B
S214007EF0C050399C3A983B9A9DF8F630BDF8F0B0E1
S214007F00BDF8F2A0BDF8F4809DF8F7C09DF8F8E043
S214007F10BDF8FA70BDF8FC60BDF8FE50C1F8C4406C
S214007F20C1F8C800C1F8CC20BDF802019DF80421B4
S214007F30BDF8004181F8D630429BA1F8D0B0A1F838
S214007F40D2A0A1F8D48081F8D7C081F8D8E0A1F8F3
S214007F50DA70A1F8DC60A1F8DE50A1F8E20081F842
S214007F60E420C1F8E830A1F8E040439C449D9DF829
S214007F7015719DF81601BDF81821479B9DF81481D0
S214007F809DF820C19DF821E1C1F8EC40499E4B9C2C
S214007F90C1F8F05081F8F5704A9DBDF8307181F84F
S214007FA0F600A1F8F820BDF832019DF83421C1F89A
S214007FB0FC304E9B81F8F48081F800C181F801E125
S214007FC0C1F80851C1F80C41A1F81071A1F81201CE
S214007FD081F81421C1F81831C1F804614F9E509BF6
S214007FE0519D52989DF84CC19DF84DE19DF84E71FB
S214007FF0C1F82031549B9DF84F81C1F81C61C1F82F
S2140080002451BDF85461C1F82801BDF856519DF8B9
S2140080105D0181F82CC181F82DE1BDF858C1BDF88D
S2140080205AE181F82E71C1F830319DF85C719DF8E7
S2140080305E312B4AA1F838C1A1F83AE1012481F853
S2140080402F81A1F8346181F83C7181F83D0181F8F7
S2140080503E310526A1F83651589D224F02948DE8F0
S214008060440008A8C1F840511F4B204A4FF48061D5
S214008070FCF754FC9DF82610BDF824200A9B0B9EA6
S2140080800C9D0D98B9710F999DF838809DF848E0C1
S214008090DDF84AA09DF839C0BA80BB60109A119BE3
S2140080A0FE603D619DF85C60159D7861F9611698EB
S2140080B087F8188019A93A627B6287F828E0C7F823
S2140080C02AA07D63B86387F83C6087F819C00FE084
S2140080D0BC2D02002C2F02006C2D0200600B00202D
S2140080E05C2F0200A80C00203C2F02004C2F020040
S2140080F09DF85DC09DF85E609DF860009DF871502B
S21400810087F83E600EC9DDE922AB9DF872609DF8E7
S21400811070E087F8400079641D981E99BA64FB6485
S2140081201F9A209B87F8515087F85260249D259E01
S21400813087F83DC087F850E07865B965FA653B6614
S2140081403D677E67C7E91AABDDE926ABDDE92A2382
S21400815028992E98C7F8801015462C9A2F99C7F89C
S21400816090201E46309A2D9BC7F89430C7F898008A
S214008170319B3298C7F89C10C7F8A0203399349AE0
S214008180C7F8A430C7F8A800359B3698C7F8AC10D7
S214008190C7F8B0203799389AC7F8B430C7E91EAB8D
S2140081A0C7E92256C7F8B800C7F8BC10C7F8C02001
S2140081B0399D3A983B999DF8F6209DF8F730BDF822
S2140081C0F0B0BDF8F2A0BDF8F4809DF8F8C0BDF898
S2140081D0FAE0BDF8FC60C7F8C450C7F8C800BDF8A0
S2140081E0FE50BDF80001C7F8CC1087F8D620BDF8C1
S2140081F002119DF8042187F8D730429BA7F8D0B02B
S214008200A7F8D2A0A7F8D48087F8D8C0A7F8DAE0F5
S214008210A7F8DC60A7F8DE50A7F8E00087F8E420AF
S214008220C7F8E830A7F8E2104399449D9DF814017A
S2140082309DF815E19DF81661BDF81821479B9DF83D
S21400824020819DF821C1C7F8EC10C7F8F0504B9973
S214008250499D87F8F40087F8F5E04A98BDF830E1C4
S21400826087F8F660A7F8F820BDF832619DF834214B
S214008270C7F8FC304E9B87F8008187F801C1C7F825
S2140082800801C7F80C11A7F810E1A7F8126187F8E3
S2140082901421C7F81831C7F804514F9D509B5198C8
S2140082A052999DF84CC19DF84DE1C7F82031549B7A
S2140082B09DF84E61BDF854819DF85DA1C7F81C512C
S2140082C0C7F824019DF84F51BDF85601C7F828118C
S2140082D087F82CC1BDF858119DF85CC187F82DE1D0
S2140082E0C7F83031BDF85AE19DF85E31CA4AA7F8A2
S2140082F03AE187F83CC187F82E6187F82F51A7F836
S214008300348103250226A7F8360187F83DA187F8B1
S2140083103E31A7F838115899C04B8DE8640008A87C
S214008320C7F84011BE4ABF4F4FF40071FCF7F6FA8B
S214008330BDF824C00A9A0B9B0D999DF826E00C9870
S214008340A7F804C0BA609DF838C00F9AFB60796140
S214008350109B15999DF8488087F806E038619DF8CF
S21400836039E0119887F818C0FA61DDF84AC0169A05
S2140083703B6279639DF85C3087F819E019A978624A
S21400838087F82880BA6387F83C30C7F82AC09DF87B
S2140083905DC09DF860009DF85EE087F840000EC95D
S2140083A0DDE922AB9DF872007964BA641D991E9AC5
S2140083B087F83DC087F83EE09DF870C09DF871E0F4
S2140083C0FB6487F852001F9B20987965BA6524994C
S2140083D0259A87F850C087F851E0FB65C7E91AABC5
S2140083E07A6738663967DDE92601289B2C9AC7F834
S2140083F08030C7F890202D9B2E9AC7F89430C7F887
S21400840098202F9B309AC7F89C30C7F8A020319B45
S214008410329AC7F8A430DDE92AAB339BC7F8A82008
S214008420349AC7F8AC30C7F8B020359B369AC7F8F0
S214008430B430C7E91E01379BC7F8B82039A9389A67
S214008440C7F8BC30C7E922ABC7F8C0200EC9BDF8D4
S214008450F2C0BDF8F4E09DF8F600C7F8C410C7F8FF
S214008460C8209DF8F7109DF8F820C7F8CC30BDF866
S214008470FA30BDF8F080A7F8D2C0A7F8D4E0BDF86F
S214008480FCC0BDF8FEE087F8D60087F8D710BDF828
S2140084900001BDF8021187F8D820A7F8DA309DF859
S2140084A00421429BA7F8D080A7F8DCC0A7F8DEE03E
S2140084B0A7F8E000A7F8E210C7F8E83087F8E4204D
S2140084C0439ADDF810E19DF814819DF815C19DF8DA
S2140084D01631BDF818014799C7F8EC20C7F8F0E048
S2140084E0499A9DF820E187F8F48087F8F5C09DF852
S2140084F02181BDF830C187F8F630A7F8F8004A9B0E
S2140085004B98C7F8FC1087F800E19DF83411BDF8C9
S21400851032E1C7F804214E9A87F80181C7F808317E
S214008520C7F80C01A7F810C1A7F812E1C7F8182180
S21400853087F814114F99519B509AC7F81C11C7F829
S21400854024319DF84D119DF84F3152989DF84EC13B
S214008550C7F8202187F82D11549ABDF8541187F8D2
S2140085602F31BDF858319DF84CA1C7F8280187F87F
S2140085702EC1BDF85A01BDF856C1C7F83021A7F87C
S21400858034119DF85D219DF85C11A7F838319DF8EF
S2140085905E31A7F836C14FF00008DFF898E087F89C
S2140085A02CA1A7F83A0187F83D2187F83E3187F8D5
S2140085B03C1158991C4B0295CDF80480CDF800E08C
S2140085C008A8C7F84011194A194F4FF48071FCF7F4
S2140085D0A5F90AA807C8BDF824309DF826E0BB8098
S2140085E00D9B87F806E0B8609DF838E09DF83900E6
S2140085F0F9603A610F99109A7B61119B87F818E031
S21400860078769DF848E0DDF84A00F9613A621599F7
S214008610169A7B6210E000BF6C2E02000C2E020041
S2140086204C2E0200F00D00201C2E02005C2E0200D4
S214008630380F00207C2E02009DF85C30C7F82A0018
S2140086407963BA6387F83C3087F828E09DF85DE0E8
S2140086509DF8603019991A9A87F84030DDE922AB08
S2140086601B9B7964BA649DF871109DF872209DF882
S2140086705E00FB6487F851101D9B1E9987F85220F8
S2140086801F9A87F83E007B659DF87000209BB965B1
S214008690FA652499259A87F83DE087F85000C7E9DF
S2140086A01AAB39673B667A67DDE926232899C7F84F
S2140086B080102C99C7F890102D99C7F894102E9911
S2140086C0C7F898102F99C7F89C103099C7F8A010D3
S2140086D03199C7F8A4103299C7F8A8103399C7F88B
S2140086E0AC103499C7F8B0103599C7F8B410DDE966
S2140086F02AAB3699C7F8B8103799C7F8BC1038991E
S214008700C7F8C010C7E922ABC7E91E23399BC7F8D4
S214008710C4303A983B99BDF8F220BDF8F4309DF885
S214008720F6E0C7F8C800C7F8CC109DF8F7009DF82B
S214008730F810A7F8D220A7F8D430BDF8FA20BDF874
S214008740FC30BDF8F0C087F8D6E087F8D700BDF853
S214008750FEE0BDF8000187F8D810A7F8DA20BDF8CB
S21400876002119DF80421A7F8DC30429BA7F8D0C080
S214008770A7F8DEE0A7F8E000A7F8E21087F8E42004
S214008780C7F8E830439BC7F8EC3044989DF814E1EE
S2140087909DF815119DF81621BDF81831C7F8F000A0
S2140087A087F8F4E047989DF820E187F8F51087F8F9
S2140087B0F6209DF82111499AA7F8F8304A9BC7F889
S2140087C0FC0087F800E14B98BDF830E187F801110E
S2140087D0C7F80421BDF832119DF83421C7F80831D6
S2140087E04E9BC7F80C01A7F810E1A7F81211C7F8BE
S2140087F0183187F814214F9AC7F81C2150985199C0
S214008800529AC7F82001C7F824119DF84E019DF82A
S2140088104F11C7F82821549A9DF84DC187F82E01AC
S21400882087F82F11BDF85601BDF85811C7F830214A
S214008830BDF85A219DF84CA187F82DC1A7F836013E
S214008840BDF854C19DF85C01A7F83811A7F83A2185
S2140088509DF85D119DF85E2187F82CA1A7F834C11C
S21400886087F83C0187F83D1187F83E21589ADFF8D3
S21400887008C20792DFF804E20595784B079D784812
S214008880CDF810E04FF400528DE8041003930290E8
S2140088904146C7F84051DFF8E881724D08A84FF40A
S2140088A000334FF4802208F0A7FB0A99099A9DF836
S2140088B02C300C98C8F80810C8F804200D990E9AA9
S2140088C088F80C300F9BC8F81000C8F814101098E1
S2140088D01199C8F81820C8F81C309DF848209DF853
S2140088E04930C8F8200080279DF84A00C8F82410B0
S2140088F088F82820BDF84C109DF84E2088F82930BE
S2140089009DF84F3088F82F3088F82A00A8F82C10E9
S21400891088F82E2014A93A4608F1300015F0C0FB5E
S2140089203A4634A908F1B00015F0BAFB4E4B039353
S2140089304E484F4A02904FF4805301920093549849
S214008940559A569B05962146579CC8F83001BDF8A7
S21400895068C1C8F834215898C8F838319DF86AE1DB
S214008960C8F83C419DF86B615B9A5C9B5D9CC8F8BF
S2140089704001A8F848C188F84AE188F84B61C8F871
S2140089804C21C8F85031C8F8544108A8394E04960E
S2140089904FF480334FF4002208F02EFB0A9C09980F
S2140089A09DF82CE00C9A0E9E119BAC6068600F9CA4
S2140089B00D98BDF84CC085F80CE02A619DF849E09A
S2140089C09DF848206861AE6110989DF84A60EC6199
S2140089D06B629DF84E409DF84F3085F829E0A5F86B
S2140089E02CC085F82F3014A9286285F8282085F831
S2140089F02A603A4685F82E4005F1300015F050FB07
S214008A003A4634A905F1B00015F04AFB55A890E89F
S214008A100510549BC5F830315C9B589EBDF868E144
S214008A209DF86A719DF86B415B99C5F850315D9B66
S214008A30C5F834014846C5F83821C5F85431C5F89C
S214008A404061C5F83CC1A5F848E185F84A7185F84B
S214008A504B41C5F84C115FB0BDE8F08F5C2C0200AE
S214008A604C2C0200E81500207C2C02006C2C020026
S214008A709C2D02003C2D02008C2D02002C2D0200A5
S214008A8090140020142903DC034A52F82100704792
S214008A90024B186806F0A0BED82B0200FC1E002071
S214008AA0F0B5B14AD2F8E4306FF3861385B0C2F859
S214008AB0E430D2F8E4305E06FBD4D2F8E430AA49BB
S214008AC0012060F30303C2F8E430D2F8E43043F048
S214008AD04003C2F8E4304B6813F00403FBD1A3480C
S214008AE0A34A816941F400618161116863F3410121
S214008AF01160936813F00203FBD1536310799A490F
S214008B0040F002001071D06B40F47C1040F0020080
S214008B10D06353649364D364136553659365906A16
S214008B2040F001009062D1F8E42063F38612C1F8A9
S214008B30E4200A46D2F8E4305D06FBD4D2F8E430EE
S214008B408949012060F30303C2F8E430D2F8E43028
S214008B5043F04003C2F8E4304B6813F00403FBD143
S214008B608248844A816941F480518161116863F3C7
S214008B7041011160936813F00203FBD1536310792F
S214008B80794940F002001071D06B40F47C1040F040
S214008B900200D06353649364D3641365536593658E
S214008BA0D1F8A42063F38612C1F8A4200A46D2F8AE
S214008BB0A4305C06FBD4D2F8A4306B49062060F3E0
S214008BC00303C2F8A430D2F8A43043F04003C2F83E
S214008BD0A4304B6813F01803FBD1644C624A6069FA
S214008BE040F400406061D1F8E80063F38610C1F8F5
S214008BF0E800D2F8E8305806FBD4D2F8E8305A49F4
S214008C00062060F30303C2F8E830D2F8E83043F0F9
S214008C104003C2F8E8304B6813F01803FBD1534CFE
S214008C20514AA06940F40050A061D1F8F80063F3FF
S214008C308610C1F8F800D2F8F8305906FBD4D2F8FE
S214008C40F8304949062060F30303C2F8F830D2F83A
S214008C50F83043F04003C2F8F8304B6813F01803BE
S214008C60FBD14248404AC469462544F04004C461EA
S214008C70C1F81C51046A44F020040462D1F8F400E0
S214008C8063F38610C1F8F400D2F8F430C3F380130F
S214008C90002BF9D1D2F8F4103448334C63F30301B7
S214008CA0C2F8F410D2F8F41041F04001C2F8F41003
S214008CB05168C16941F01001C161D2F8181163F31F
S214008CC08611C2F81811D4F81831C3F38013002B9C
S214008CD0F9D1D4F81811284A244D63F30301C4F8D7
S214008CE01811D4F8183143F04003C4F8183107CAF5
S214008CF063682C6A01AB44F010042C620DF1100C72
S214008D0083E807004FF0010E1946042702260325C4
S214008D10FE2451F8042B13686FF3410313601369A4
S214008D2013F00203FBD1107940F0020010711068B6
S214008D306EF383001060106867F30A2010601673E5
S214008D40557382F82F4082F8303082F83130137530
S214008D50136843F00203136013699B07FCD4614554
S214008D60D7D105B0F0BD00BF001C00400008004091
S214008D700060014100800141B42B02008B498C4AFF
S214008D80CB682DE9F04743F080734FF001080024CC
S214008D90CB605460C2F800800646FFF781FE854B24
S214008DA085491A690D68854F64F341021A611A698C
S214008DB0A72161F317421A611A6968F383021A61E0
S214008DC01A69072161F30B221A611A6942F002023E
S214008DD01A612846414608F0C1FB7948002100F098
S214008DE09BFC2146284608F0B9FB764B764AC3F82A
S214008DF08480022183F8C010106806F001FE57F840
S214008E00040F036821B25B6A01349847152CF6D12B
S214008E1005F014FE6D4B186801F074FF6C4801F005
S214008E20C9FA6C4B186803F021FF6B4B186806F004
S214008E3023F96A4B1868FDF7EFF9694802F07CFDE4
S214008E40684AD2F890306FF38613C2F89030D2F8A2
S214008E509010C1F380110029F9D1D2F89000624C2D
S214008E605B4F624BDFF890C161F30300C2F89000DD
S214008E70D2F8901041F04001C2F890105268616933
S214008E80D7F8EC0041F480614FF4805E6161E02227
S214008E90C3F800E040F480404FF480384FF4003EC2
S214008EA04FF480214FF400594FF480444FF4004AA9
S214008EB083F80C23C7F8EC00C3F800904FF40020AA
S214008EC083F80D234FF480171C6083F80E23C3F835
S214008ED000A083F80F23C3F8008083F81023C3F89C
S214008EE000E083F811234FF4001E19604FF4800150
S214008EF083F81223186083F813234FF400001F60D2
S214008F0083F81423C3F800E083F8152319604FF0A4
S214008F10807183F816234FF00078186083F81723C3
S214008F201960DCF8000083F818234FF080614FF0DA
S214008F30006CC3F8008083F819234FF4807819601A
S214008F4083F81A236021C3F800C083F81B234FF070
S214008F50200C4022C3F808E083F855139F6083F87E
S214008F605413C3F80C804FF47A71C3F80CC083F81E
S214008F70682383F8652300F07FFB00B1FEE71C4BF7
S214008F80C0222146284683F8232008F0D9FA42F664
S214008F903B0400F09DFBA042FBD9164B186800F07E
S214008FA0DDFC01233370BDE8F08700BFF0ED00E084
S214008FB0001000E000180040181F0020D42B02000C
S214008FC0C0D4010000800041081F0020FC1B0020C8
S214008FD0D0190020FC1D0020FC1E0020D00A002016
S214008FE0E81A0020001C00400008004000E100E0F5
S214008FF000ED00E0F01B0020E41B002072B6094ADA
S214009000094B012918BF00231360BFF34F8F074990
S214009010074BCA6802F4E0621343CB60BFF34F8F7E
S21400902000BFFDE7FCFF0220EF6916F000ED00E050
S2140090300400FA05014B186801F008B9F01B00207F
S214009040014807F013BF00BFE8150020014807F0ED
S21400905035BF00BFE8150020014807F06BBF00BF12
S214009060E8150020014807F001BF00BF40170020A8
S214009070014807F023BF00BF40170020014807F053
S21400908059BF00BF40170020014807F0EFBE00BFE1
S21400909090140020014807F011BF00BF9014002074
S2140090A0014807F047BF00BF90140020024B002184
S2140090B0186806F0EDBC00BF081F0020024B012117
S2140090C0186806F0E5BC00BF081F0020024B02210E
S2140090D0186806F0DDBC00BF081F0020024B032105
S2140090E0186806F0D5BC00BF081F0020024B0421FC
S2140090F0186806F0CDBC00BF081F0020024B0521F3
S214009100186806F0C5BC00BF081F0020024B0621E9
S214009110186806F0BDBC00BF081F0020024B0721E0
S214009120186806F0B5BC00BF081F0020024B0821D7
S214009130186806F0ADBC00BF081F0020024B0921CE
S214009140186806F0A5BC00BF081F0020024B0A21C5
S214009150186806F09DBC00BF081F0020024B0B21BC
S214009160186806F095BC00BF081F0020014B186861
S21400917000F0B0BEF01B0020024B0D21186806F070
S21400918087BC00BF081F0020024B0E21186806F09F
S2140091907FBC00BF081F0020024B0F21186806F096
S2140091A077BC00BF081F0020024B034ADA62034860
S2140091B005F0CEB9001000420FFC3F00F01300206F
S2140091C0024B034ADA62034805F0C2B900100043B6
S2140091D00FFC3F006C13002008B50D4B1B7803B145
S2140091E008BD0C4B1B78002BFAD00B4B186806F00A
S2140091F099FA0A48FBF72AFD0948FBF727FD0948B4
S214009200FBF724FD0848BDE80840FBF71FBD00BF7C
S21400921080100020CC190020FC1E0020600B0020CF
S214009220A80C0020F00D0020380F0020304A2DE951
S214009230F843304B1668304ADA62304600F0CAF916
S2140092402E4BDFF8F480D3F80090484605F088FFF0
S2140092502B4B186803F0C4FE2A4B186808F014FA63
S214009260294B1868FDF722FE284B1F68384606F083
S2140092703DFC98F800305BB1254C264804F15005BB
S21400928001E054F8040F03681B6A9847AC42F8D113
S214009290384606F03FFC204802F07CFB1F4801F0F1
S2140092A05BF9304600F0ACF91D4A1E491368097890
S2140092B00133136011B198F8003023B93046BDE889
S2140092C0F84300F08DB9484606F02CFA1648FBF72E
S2140092D0BDFC1648FBF7BAFC1548FBF7B7FC15486B
S2140092E0FBF7B4FC3046BDE8F84300F079B900BFA0
S2140092F0E41B0020006001410FFC3F00FC1E002024
S214009300FC1D0020181F0020D00A0020081F002087
S214009310D82B0200E0110020E81A0020D019002007
S214009320E01B002080100020600B0020A80C00200E
S214009330F00D0020380F0020CC19002008B5134887
S214009340134B98420BD01349814208D0984206D25C
S214009350C2431A4422F00302043214F0A1FE0E485F
S2140093600E4B984208D007D2C2431A4422F003029A
S2140093700432002114F092FF02F03AF914F006FBD2
S2140093800748FFF7FBFCFBF7E3F8FEE700000020CA
S214009390B00A00201C4F0200B00A0020A0230020C4
S2140093A0CC1900202DE9F8435248534D534CDFF8B2
S2140093B0BC91DFF8BC81524F02F094FA514B524AEE
S2140093C052481A600026C3F8406100F061FF504B17
S2140093D0504AC3F8406128461A6004F073FF4E4BAB
S2140093E02B60204604F06EFF4C4B2360484604F08A
S2140093F069FF4B4C4B4DC9F80040404604F062FFF5
S214009400DFF87091C8F80040384604F05BFFDFF8DC
S21400941068813C60284604F055FF434C434F2C605F
S214009420484604F04FFF424DC9F80040404604F05D
S21400943049FF404CDFF84491C8F80040384604F035
S21400944041FFDFF83C813C60284604F03BFF3A4F82
S2140094502C60484604F036FF384C394DC9F80040B9
S214009460404604F02FFF3846C8F8004004F02AFFB4
S21400947028463C6004F026FF32482C60FDF71EFFAD
S2140094803148DFF80081314D314C324FDFF8F8902B
S214009490FDF714FF3048FDF711FF3048FDF70EFFCB
S2140094A040462F4B40F8043B04F00CFF2D4BC8F809
S2140094B0003005F5A2707433C5F84061C5F8009019
S2140094C0C8F8043004F0FEFE07F1740804F5A27034
S2140094D0C4F84061C4F800902F60C5F8448104F0D9
S2140094E0F1FEC4F8448127601F48BDE8F843FDF745
S2140094F007BF00BFE81A002074140020E011002007
S2140095000C130020841800201C2B0200D019002009
S214009510401700206C2B02001C330200843002002F
S214009520E43002006C130020943102008011002009
S214009530B011002064310200C8100020B4300200D0
S2140095400C110020600B0020A80C002090140020B6
S214009550E815002078320200F00D0020380F0020B9
S214009560182A0200682A0200CC1900204C1200209B
S214009570AC120020F013002050110020180B002021
S21400958084100020801400200832020070B50F4DB1
S2140095902C6814F0010402D00D4B186870BD302002
S2140095A009F0F6FD0A4A046005214FF0FF36012354
S2140095B001758460C46004618461C46104624462AD
S2140095C08462C462466010602B6070BDDC1B0020A5
S2140095D0E81B0020014B5B6803607047001000E04A
S2140095E0064B01685B6842685B1A9342826838BF24
S2140095F043609342C36088BF83607047001000E0FA
S2140096001C4A38B5D36843F08073D360037D013BB2
S214009610DBB20446037523B90369052201330361EF
S21400962002752568A3696B4003F04043B3F1804F91
S21400963001D0A56138BD002D08DB626AE36AA5612A
S2140096400132C3F178032262A36238BDE1690131B9
S214009650E16178220023002012F0F8FD606228B154
S214009660C0EB0010C3005B42E362E2E7E061E06249
S214009670DFE700BFF0ED00E0C1EB0113DB00C72918
S2140096800D4A03F1FF338CBF00210121B3F1807F27
S21400969011700ED2094A0A4810B4E024536007211C
S2140096A080F8234000231846936011605DF8044B51
S2140096B070470120704700BF8010002010E000E0D7
S2140096C000ED00E0014B1B6818697047E41B0020A2
S2140096D00E4B0F4A5B681268002B10B40ADBD46A84
S2140096E00C49506A2344A1FB032300EB93105DF85A
S2140096F0044B7047946A0749106A1B1BA1FB03239F
S21400970000EB93105DF8044B704700BF001000E0BC
S214009710E41B00208988888870B40D4E50EA010347
S214009720746813D0736800251C1B8D4208BF8442E2
S2140097300CD27268001BA2EB030361EB0501002547
S2140097401C468D4208BF84421346F2D370BC704755
S214009750001000E008B5FFF719FF014B186008BDC0
S214009760E41B0020F8B5374E356815F0010502D029
S214009770354B1868F8BD41F6C41009F009FD0446DB
S214009780112712236760E36013220D2114270B2391
S2140097906261E161676363640C2702230F200E2277
S2140097A01C212363A36323642365E062E26461658E
S2140097B067622946E763A7652560A5602561A56100
S2140097C02562A562A56484F85C5084F85D5084F830
S2140097D05E5084F85F5084F8605084F8615084F8D6
S2140097E06250A4F8645004F594704FF4006214F0CC
S2140097F055FD294604F628104FF4825214F04EFD0B
S21400980041F66C1741F66811E31941F66A12C82052
S214009810605204F5CC500821A1540430E551294685
S2140098205D609D60DD601D615D613C2214F036FD6B
S214009830054904F5CE5201230C60156020463360BE
S214009840F8BD00BFEC1B0020F41B002000223E4B9E
S21400985080F85C2080F85E2080F85D201A683B491E
S21400986042F010021A601A46596393685907FCD5ED
S21400987013686FF304131360536B4FF6FF719BB2BC
S2140098808B425DD010B41368314C2F4943F010035F
S214009890136054638B685A07FCD50B682B4C2A4A16
S2140098A06FF304130B604B6B0B6843F010030B60F5
S2140098B04C6393685B07FCD51368264C22496FF30C
